{
    "contractName": "ListingFactory",
    "abi": [
        {
            "inputs": [
                {
                    "internalType": "address payable",
                    "name": "_interactionContract",
                    "type": "address"
                },
                {
                    "internalType": "address payable",
                    "name": "_feeCollector",
                    "type": "address"
                }
            ],
            "payable": false,
            "stateMutability": "nonpayable",
            "type": "constructor"
        },
        {
            "anonymous": false,
            "inputs": [
                {
                    "indexed": true,
                    "internalType": "address",
                    "name": "listingAddress",
                    "type": "address"
                },
                {
                    "indexed": true,
                    "internalType": "address",
                    "name": "creator",
                    "type": "address"
                }
            ],
            "name": "ListingProduced",
            "type": "event"
        },
        {
            "constant": true,
            "inputs": [
                {
                    "internalType": "address",
                    "name": "",
                    "type": "address"
                }
            ],
            "name": "createdBy",
            "outputs": [
                {
                    "internalType": "address",
                    "name": "",
                    "type": "address"
                }
            ],
            "payable": false,
            "stateMutability": "view",
            "type": "function"
        },
        {
            "constant": false,
            "inputs": [
                {
                    "internalType": "address payable",
                    "name": "_interactionContract",
                    "type": "address"
                }
            ],
            "name": "setListingInteractionContract",
            "outputs": [],
            "payable": false,
            "stateMutability": "nonpayable",
            "type": "function"
        },
        {
            "constant": false,
            "inputs": [
                {
                    "internalType": "uint256",
                    "name": "_revealTime",
                    "type": "uint256"
                }
            ],
            "name": "setRevealTime",
            "outputs": [],
            "payable": false,
            "stateMutability": "nonpayable",
            "type": "function"
        },
        {
            "constant": false,
            "inputs": [
                {
                    "internalType": "string",
                    "name": "_uri",
                    "type": "string"
                },
                {
                    "internalType": "bool",
                    "name": "_groupable",
                    "type": "bool"
                },
                {
                    "internalType": "uint64",
                    "name": "_ltMax",
                    "type": "uint64"
                },
                {
                    "internalType": "uint256",
                    "name": "_creationTime",
                    "type": "uint256"
                },
                {
                    "internalType": "uint256",
                    "name": "_auctionTime",
                    "type": "uint256"
                },
                {
                    "internalType": "uint256",
                    "name": "_endTime",
                    "type": "uint256"
                },
                {
                    "internalType": "uint64",
                    "name": "_minMerit",
                    "type": "uint64"
                },
                {
                    "internalType": "uint256",
                    "name": "_maxPrice",
                    "type": "uint256"
                }
            ],
            "name": "newListing",
            "outputs": [],
            "payable": true,
            "stateMutability": "payable",
            "type": "function"
        },
        {
            "constant": true,
            "inputs": [],
            "name": "getListingsCount",
            "outputs": [
                {
                    "internalType": "uint256",
                    "name": "",
                    "type": "uint256"
                }
            ],
            "payable": false,
            "stateMutability": "view",
            "type": "function"
        },
        {
            "constant": true,
            "inputs": [],
            "name": "getListingAddresses",
            "outputs": [
                {
                    "internalType": "address[]",
                    "name": "",
                    "type": "address[]"
                }
            ],
            "payable": false,
            "stateMutability": "view",
            "type": "function"
        },
        {
            "constant": true,
            "inputs": [
                {
                    "internalType": "address",
                    "name": "_listing",
                    "type": "address"
                }
            ],
            "name": "getListingCreator",
            "outputs": [
                {
                    "internalType": "address",
                    "name": "",
                    "type": "address"
                }
            ],
            "payable": false,
            "stateMutability": "view",
            "type": "function"
        }
    ],
    "bytecode": "0x608060405234801561001057600080fd5b506040516155143803806155148339818101604052604081101561003357600080fd5b5080516020918201516040805163bb5f747b60e01b815233600482015290519293919284926001600160a01b0384169263bb5f747b9260248083019392829003018186803b15801561008457600080fd5b505afa158015610098573d6000803e3d6000fd5b505050506040513d60208110156100ae57600080fd5b50516100eb5760405162461bcd60e51b81526004018080602001828103825260278152602001806154ed6027913960400191505060405180910390fd5b50600280546001600160a01b039384166001600160a01b031991821617909155600380549290931691161790556101f46004556153c08061012d6000396000f3fe6080604052600436106200007a5760003560e01c8063c1e285071162000055578063c1e2850714620001db578063cbaa068f1462000209578063d11afc511462000233578063f9a2402b146200029d576200007a565b80631e3e8e8a146200007f5780638fb1d67214620000ec578063a71e959f1462000197575b600080fd5b3480156200008c57600080fd5b50620000c360048036036020811015620000a557600080fd5b503573ffffffffffffffffffffffffffffffffffffffff16620002e1565b6040805173ffffffffffffffffffffffffffffffffffffffff9092168252519081900360200190f35b6200019560048036036101008110156200010557600080fd5b8101906020810181356401000000008111156200012157600080fd5b8201836020820111156200013457600080fd5b803590602001918460018302840111640100000000831117156200015757600080fd5b9193509150803515159067ffffffffffffffff602082013581169160408101359160608201359160808101359160a0820135169060c0013562000309565b005b348015620001a457600080fd5b506200019560048036036020811015620001bd57600080fd5b503573ffffffffffffffffffffffffffffffffffffffff1662000896565b348015620001e857600080fd5b5062000195600480360360208110156200020157600080fd5b5035620009d3565b3480156200021657600080fd5b506200022162000ad1565b60408051918252519081900360200190f35b3480156200024057600080fd5b506200024b62000ad7565b60408051602080825283518183015283519192839290830191858101910280838360005b83811015620002895781810151838201526020016200026f565b505050509050019250505060405180910390f35b348015620002aa57600080fd5b50620000c360048036036020811015620002c357600080fd5b503573ffffffffffffffffffffffffffffffffffffffff1662000b48565b60006020819052908152604090205473ffffffffffffffffffffffffffffffffffffffff1681565b600254604080517f2a55feec000000000000000000000000000000000000000000000000000000008152336004820152905173ffffffffffffffffffffffffffffffffffffffff90921691632a55feec91602480820192602092909190829003018186803b1580156200037b57600080fd5b505afa15801562000390573d6000803e3d6000fd5b505050506040513d6020811015620003a757600080fd5b505180620004515750600254604080517f46336542000000000000000000000000000000000000000000000000000000008152336004820152905173ffffffffffffffffffffffffffffffffffffffff90921691634633654291602480820192602092909190829003018186803b1580156200042257600080fd5b505afa15801562000437573d6000803e3d6000fd5b505050506040513d60208110156200044e57600080fd5b50515b620004bd57604080517f08c379a000000000000000000000000000000000000000000000000000000000815260206004820152601960248201527f4e6f7420616e20617574686f72697a65642063726561746f7200000000000000604482015290519081900360640190fd5b600254604080517fd55629010000000000000000000000000000000000000000000000000000000081528151600093849373ffffffffffffffffffffffffffffffffffffffff9091169263d55629019260048083019392829003018186803b1580156200052957600080fd5b505afa1580156200053e573d6000803e3d6000fd5b505050506040513d60408110156200055557600080fd5b5080516020909101519092509050600a8311620005be576040517f08c379a00000000000000000000000000000000000000000000000000000000081526004018080602001828103825260888152602001806200529b6088913960a00191505060405180910390fd5b81341462000618576040517f08c379a00000000000000000000000000000000000000000000000000000000081526004018080602001828103825260428152602001806200534a6042913960600191505060405180910390fd5b6000879050604087901b81179050608086901b8117905060c08660045401901b8117905060008c8c8c8c858a8a89604051620006549062000b73565b861515602082015267ffffffffffffffff8087166040830152606082018690528416608082015260a0810183905263ffffffff821660c082015260e080825281018890528061010081018a8a808284376000838201819052604051601f9092017fffffffffffffffffffffffffffffffffffffffffffffffffffffffffffffffe0169093018190039c509a509098505050505050505050f080158015620006ff573d6000803e3d6000fd5b50600180548082019091557fb10e2d527612073b26eecdfd717e6a320cf44b4afac2b0732d9fcbe2b7fa0cf601805473ffffffffffffffffffffffffffffffffffffffff8084167fffffffffffffffffffffffff000000000000000000000000000000000000000092831681179093556000838152602081905260408082208054909416331790935560025483517f2348238c0000000000000000000000000000000000000000000000000000000081529216600483015291519394509192632348238c92602480820193929182900301818387803b158015620007e257600080fd5b505af1158015620007f7573d6000803e3d6000fd5b505060035460405173ffffffffffffffffffffffffffffffffffffffff90911692503480156108fc029250906000818181858888f1935050505015801562000843573d6000803e3d6000fd5b50604051339073ffffffffffffffffffffffffffffffffffffffff8316907f09b07195a1a42f4a5a52b7e0e3f57dafa066c9eb2a9c2e13ab1c9db6ce670c2990600090a350505050505050505050505050565b604080517fbb5f747b0000000000000000000000000000000000000000000000000000000081523360048201529051829173ffffffffffffffffffffffffffffffffffffffff83169163bb5f747b91602480820192602092909190829003018186803b1580156200090657600080fd5b505afa1580156200091b573d6000803e3d6000fd5b505050506040513d60208110156200093257600080fd5b50516200098b576040517f08c379a0000000000000000000000000000000000000000000000000000000008152600401808060200182810382526027815260200180620053236027913960400191505060405180910390fd5b50600280547fffffffffffffffffffffffff00000000000000000000000000000000000000001673ffffffffffffffffffffffffffffffffffffffff92909216919091179055565b600254604080517fbb5f747b000000000000000000000000000000000000000000000000000000008152336004820152905173ffffffffffffffffffffffffffffffffffffffff90921691829163bb5f747b916024808301926020929190829003018186803b15801562000a4657600080fd5b505afa15801562000a5b573d6000803e3d6000fd5b505050506040513d602081101562000a7257600080fd5b505162000acb576040517f08c379a0000000000000000000000000000000000000000000000000000000008152600401808060200182810382526027815260200180620053236027913960400191505060405180910390fd5b50600455565b60015490565b6060600180548060200260200160405190810160405280929190818152602001828054801562000b3e57602002820191906000526020600020905b815473ffffffffffffffffffffffffffffffffffffffff16815260019091019060200180831162000b12575b5050505050905090565b73ffffffffffffffffffffffffffffffffffffffff9081166000908152602081905260409020541690565b6147198062000b828339019056fe60806040523480156200001157600080fd5b506040516200471938038062004719833981810160405260e08110156200003757600080fd5b81019080805160405193929190846401000000008211156200005857600080fd5b9083019060208201858111156200006e57600080fd5b82516401000000008111828201881017156200008957600080fd5b82525081516020918201929091019080838360005b83811015620000b85781810151838201526020016200009e565b50505050905090810190601f168015620000e65780820380516001836020036101000a031916815260200191505b5060409081526020820151908201516060830151608084015160a085015160c0909501519396509194509290916000620001286001600160e01b036200073f16565b600080546001600160a01b0383166001600160a01b0319909116811790915560408051918252519192507f4101e71e974f68df5e9730cc223280b41654676bbb052cdcc735c3337e64d2d9919081900360200190a15083604081901c608082901c60c083901c6001600160401b038084169085161115620001db5760405162461bcd60e51b815260040180806020018281038252602f815260200180620046a0602f913960400191505060405180910390fd5b816001600160401b0316836001600160401b031611156200022e5760405162461bcd60e51b81526004018080602001828103825260328152602001806200466e6032913960400191505060405180910390fd5b806001600160401b0316826001600160401b03161115620002815760405162461bcd60e51b8152600401808060200182810382526028815260200180620046cf6028913960400191505060405180910390fd5b42846001600160401b03161015620002cb5760405162461bcd60e51b8152600401808060200182810382526022815260200180620046f76022913960400191505060405180910390fd5b8a51620002e09060019060208e019062000744565b50620002eb620007c9565b604051806101a001604052806000151581526020018c1515815260200160006001600160a01b031681526020018763ffffffff1681526020018b6001600160401b03168152602001866001600160401b03168152602001856001600160401b03168152602001846001600160401b03168152602001836001600160401b03168152602001896001600160401b031681526020016000815260200188815260200188815250905080600260008201518160000160006101000a81548160ff02191690831515021790555060208201518160000160016101000a81548160ff02191690831515021790555060408201518160000160026101000a8154816001600160a01b0302191690836001600160a01b0316021790555060608201518160000160166101000a81548163ffffffff021916908363ffffffff16021790555060808201518160010160006101000a8154816001600160401b0302191690836001600160401b0316021790555060a08201518160010160086101000a8154816001600160401b0302191690836001600160401b0316021790555060c08201518160010160106101000a8154816001600160401b0302191690836001600160401b0316021790555060e08201518160010160186101000a8154816001600160401b0302191690836001600160401b031602179055506101008201518160020160006101000a8154816001600160401b0302191690836001600160401b031602179055506101208201518160020160086101000a8154816001600160401b0302191690836001600160401b03160217905550610140820151816003015561016082015181600401556101808201518160050155905050306001600160a01b03167f66cef397b1858aa7a562b9cfb4e69c6b5de7adb981b7f45cd3cf51096a9a7ef98260200151836040015184608001518560a001518660c001518760e001518861010001518961012001518a61016001518b606001516001604051808c1515151581526020018b6001600160a01b03166001600160a01b031681526020018a6001600160401b03166001600160401b03168152602001896001600160401b03166001600160401b03168152602001886001600160401b03166001600160401b03168152602001876001600160401b03166001600160401b03168152602001866001600160401b03166001600160401b03168152602001856001600160401b03166001600160401b031681526020018481526020018363ffffffff1663ffffffff16815260200180602001828103825283818154600181600116156101000203166002900481526020019150805460018160011615610100020316600290048015620007155780601f10620006e95761010080835404028352916020019162000715565b820191906000526020600020905b815481529060010190602001808311620006f757829003601f168201915b50509c5050505050505050505050505060405180910390a250505050505050505050505062000852565b335b90565b828054600181600116156101000203166002900490600052602060002090601f016020900481019282601f106200078757805160ff1916838001178555620007b7565b82800160010185558215620007b7579182015b82811115620007b75782518255916020019190600101906200079a565b50620007c592915062000835565b5090565b604080516101a081018252600080825260208201819052918101829052606081018290526080810182905260a0810182905260c0810182905260e08101829052610100810182905261012081018290526101408101829052610160810182905261018081019190915290565b6200074191905b80821115620007c557600081556001016200083c565b613e0c80620008626000396000f3fe6080604052600436106101965760003560e01c80637e7fbfb6116100e157806392e6abf11161008a578063c6dbdf6111610064578063c6dbdf6114610779578063d7d0eb871461078e578063f64bfaba14610823578063f6b631671461083857610196565b806392e6abf114610659578063adc0241914610699578063c07adffb1461072357610196565b80638b395180116100bb5780638b395180146105c65780638e7ea5b2146106065780638fa8b7901461064457610196565b80637e7fbfb614610481578063810002181461051e57806382d8dff6146105b157610196565b806343516832116101435780636063994a1161011d5780636063994a146103e55780636c14c88314610413578063792b1ed91461045357610196565b80634351683214610319578063439f5ac21461037e57806351cff8d9146103a557610196565b80632348238c116101745780632348238c1461025557806333ca0ece146102975780633f6e4cda146102e057610196565b806307a078f71461019b5780631002c09a1461021757806319c350c814610240575b600080fd5b3480156101a757600080fd5b506101e1600480360360408110156101be57600080fd5b5073ffffffffffffffffffffffffffffffffffffffff8135169060200135610884565b604080519315158452602084019290925273ffffffffffffffffffffffffffffffffffffffff1682820152519081900360600190f35b34801561022357600080fd5b5061022c610ddd565b604080519115158252519081900360200190f35b34801561024c57600080fd5b5061022c610e5d565b34801561026157600080fd5b506102956004803603602081101561027857600080fd5b503573ffffffffffffffffffffffffffffffffffffffff16610e70565b005b610295600480360360608110156102ad57600080fd5b50803573ffffffffffffffffffffffffffffffffffffffff16906020810135906040013567ffffffffffffffff16610fe2565b610295600480360360408110156102f657600080fd5b5073ffffffffffffffffffffffffffffffffffffffff813516906020013561143f565b34801561032557600080fd5b5061032e611ac5565b60408051602080825283518183015283519192839290830191858101910280838360005b8381101561036a578181015183820152602001610352565b505050509050019250505060405180910390f35b34801561038a57600080fd5b50610393611b34565b60408051918252519081900360200190f35b3480156103b157600080fd5b50610393600480360360208110156103c857600080fd5b503573ffffffffffffffffffffffffffffffffffffffff16611b60565b3480156103f157600080fd5b506103fa612149565b6040805163ffffffff9092168252519081900360200190f35b34801561041f57600080fd5b5061022c6004803603602081101561043657600080fd5b503573ffffffffffffffffffffffffffffffffffffffff1661216f565b34801561045f57600080fd5b506104686121b5565b6040805192835260208301919091528051918290030190f35b34801561048d57600080fd5b506104c1600480360360208110156104a457600080fd5b503573ffffffffffffffffffffffffffffffffffffffff166121d3565b60408051978852602088019690965267ffffffffffffffff9485168787015292841660608701529216608085015273ffffffffffffffffffffffffffffffffffffffff90911660a0840152151560c0830152519081900360e00190f35b34801561052a57600080fd5b5061053361226e565b604080519b15158c5299151560208c015273ffffffffffffffffffffffffffffffffffffffff9098168a8a015267ffffffffffffffff96871660608b015294861660808a015292851660a089015290841660c0880152831660e087015290911661010085015261012084015261014083015251908190036101600190f35b3480156105bd57600080fd5b5061039361230c565b3480156105d257600080fd5b5061022c600480360360208110156105e957600080fd5b503573ffffffffffffffffffffffffffffffffffffffff16612312565b34801561061257600080fd5b5061061b612340565b6040805173ffffffffffffffffffffffffffffffffffffffff9092168252519081900360200190f35b34801561065057600080fd5b50610295612362565b34801561066557600080fd5b506103936004803603602081101561067c57600080fd5b503573ffffffffffffffffffffffffffffffffffffffff166124b2565b3480156106a557600080fd5b506106ae6128e3565b6040805160208082528351818301528351919283929083019185019080838360005b838110156106e85781810151838201526020016106d0565b50505050905090810190601f1680156107155780820380516001836020036101000a031916815260200191505b509250505060405180910390f35b34801561072f57600080fd5b506102956004803603608081101561074657600080fd5b5073ffffffffffffffffffffffffffffffffffffffff81358116916020810135821691604082013516906060013561298d565b34801561078557600080fd5b5061061b612cb8565b34801561079a57600080fd5b506107ce600480360360208110156107b157600080fd5b503573ffffffffffffffffffffffffffffffffffffffff16612cd4565b6040805173ffffffffffffffffffffffffffffffffffffffff9098168852602088019690965286860194909452911515606086015215156080850152151560a0840152151560c0830152519081900360e00190f35b34801561082f57600080fd5b5061032e612eae565b34801561084457600080fd5b506102956004803603606081101561085b57600080fd5b5073ffffffffffffffffffffffffffffffffffffffff8135169060208101359060400135612f1b565b600080548190819073ffffffffffffffffffffffffffffffffffffffff166108aa613484565b73ffffffffffffffffffffffffffffffffffffffff1614610916576040517f08c379a000000000000000000000000000000000000000000000000000000000815260040180806020018281038252602c815260200180613dac602c913960400191505060405180910390fd5b60045467ffffffffffffffff1642101561099157604080517f08c379a000000000000000000000000000000000000000000000000000000000815260206004820152601b60248201527f54696d65206973206e6f7420706173742072657665616c20656e640000000000604482015290519081900360640190fd5b73ffffffffffffffffffffffffffffffffffffffff8516600090815260086020526040902060030154859074010000000000000000000000000000000000000000900460ff16610a2c576040517f08c379a0000000000000000000000000000000000000000000000000000000008152600401808060200182810382526033815260200180613af96033913960400191505060405180910390fd5b6000610a366121b5565b50905080610a8f576040517f08c379a000000000000000000000000000000000000000000000000000000000815260040180806020018281038252603c815260200180613b2c603c913960400191505060405180910390fd5b604080516020808201899052825180830382018152918301835281519181019190912073ffffffffffffffffffffffffffffffffffffffff8a16600090815260089092529181206005015490911415610da8575060075473ffffffffffffffffffffffffffffffffffffffff881660009081526008602052604081206001908101549092610b23919063ffffffff61348816565b73ffffffffffffffffffffffffffffffffffffffff8a16600090815260086020526040902054909150610b5c908263ffffffff61350416565b73ffffffffffffffffffffffffffffffffffffffff808b16600090815260086020908152604080832094909455600254620100009004909216815260099091522054610bae908263ffffffff61354616565b60025473ffffffffffffffffffffffffffffffffffffffff620100009091048116600090815260096020908152604080832094909455918c168152600890915290812060030180547fffffffffffffffffffff00ffffffffffffffffffffffffffffffffffffffffff16750100000000000000000000000000000000000000000017905580610c3b6121b5565b73ffffffffffffffffffffffffffffffffffffffff8d166000908152600860205260409020600101549193509150610c8490610c7e90849063ffffffff61350416565b826135ba565b73ffffffffffffffffffffffffffffffffffffffff8b16600090815260086020526040812060030154429190610cdf908390760100000000000000000000000000000000000000000000900467ffffffffffffffff16613504565b73ffffffffffffffffffffffffffffffffffffffff8e166000908152600860205260409020600401805467ffffffffffffffff80841668010000000000000000027fffffffffffffffffffffffffffffffff0000000000000000ffffffffffffffff909216919091179091556003549192508791610d769116610d6a846103e863ffffffff61348816565b9063ffffffff6135c316565b600254919c509a5062010000900473ffffffffffffffffffffffffffffffffffffffff169850610dd495505050505050565b50600254600095506103e9945062010000900473ffffffffffffffffffffffffffffffffffffffff1692505b50509250925092565b600254600090610100900460ff1680610e095750600254610100900460ff16158015610e095750600a54155b8015610e57575060035468010000000000000000900467ffffffffffffffff164210801590610e575750600354700100000000000000000000000000000000900467ffffffffffffffff1642105b90505b90565b60045467ffffffffffffffff1642101590565b60005473ffffffffffffffffffffffffffffffffffffffff16610e91613484565b73ffffffffffffffffffffffffffffffffffffffff1614610efd576040517f08c379a000000000000000000000000000000000000000000000000000000000815260040180806020018281038252602c815260200180613dac602c913960400191505060405180910390fd5b73ffffffffffffffffffffffffffffffffffffffff8116610f69576040517f08c379a000000000000000000000000000000000000000000000000000000000815260040180806020018281038252602a815260200180613d82602a913960400191505060405180910390fd5b6000805473ffffffffffffffffffffffffffffffffffffffff83167fffffffffffffffffffffffff0000000000000000000000000000000000000000909116811790915560408051918252517f4101e71e974f68df5e9730cc223280b41654676bbb052cdcc735c3337e64d2d99181900360200190a150565b60005473ffffffffffffffffffffffffffffffffffffffff16611003613484565b73ffffffffffffffffffffffffffffffffffffffff161461106f576040517f08c379a000000000000000000000000000000000000000000000000000000000815260040180806020018281038252602c815260200180613dac602c913960400191505060405180910390fd5b600354700100000000000000000000000000000000900467ffffffffffffffff164210156110fe57604080517f08c379a000000000000000000000000000000000000000000000000000000000815260206004820181905260248201527f54696d65206973206265666f7265207468652061756374696f6e207374617274604482015290519081900360640190fd5b6003547801000000000000000000000000000000000000000000000000900467ffffffffffffffff16421061119457604080517f08c379a000000000000000000000000000000000000000000000000000000000815260206004820152601c60248201527f54696d652069732070617374207468652061756374696f6e20656e6400000000604482015290519081900360640190fd5b60025460ff161561120657604080517f08c379a000000000000000000000000000000000000000000000000000000000815260206004820152601860248201527f546865206c697374696e67207761732063616e63656c65640000000000000000604482015290519081900360640190fd5b60006112106121b5565b50905080611269576040517f08c379a000000000000000000000000000000000000000000000000000000000815260040180806020018281038252603c815260200180613b2c603c913960400191505060405180910390fd5b73ffffffffffffffffffffffffffffffffffffffff8416600090815260096020526040902060020154849060ff16156112ed576040517f08c379a0000000000000000000000000000000000000000000000000000000008152600401808060200182810382526030815260200180613d0d6030913960400191505060405180910390fd5b600454839067ffffffffffffffff80831668010000000000000000909204161115611363576040517f08c379a0000000000000000000000000000000000000000000000000000000008152600401808060200182810382526045815260200180613c876045913960600191505060405180910390fd5b5050600b805460018082019092557f0175b7a638427703f0dbe7bb9bbf987a2551717b34e79f33b5b1008d1fa01db90180547fffffffffffffffffffffffff00000000000000000000000000000000000000001673ffffffffffffffffffffffffffffffffffffffff969096169586179055604080516060810182523481526020808201968752818301848152600098895260099091529190962095518655935190850155505051600290910180547fffffffffffffffffffffffffffffffffffffffffffffffffffffffffffffff0016911515919091179055565b60005473ffffffffffffffffffffffffffffffffffffffff16611460613484565b73ffffffffffffffffffffffffffffffffffffffff16146114cc576040517f08c379a000000000000000000000000000000000000000000000000000000000815260040180806020018281038252602c815260200180613dac602c913960400191505060405180910390fd5b60035468010000000000000000900467ffffffffffffffff1642101561155357604080517f08c379a000000000000000000000000000000000000000000000000000000000815260206004820152601f60248201527f54696d65206973206265666f7265206c697374696e67206372656174696f6e00604482015290519081900360640190fd5b600354700100000000000000000000000000000000900467ffffffffffffffff1642106115e157604080517f08c379a000000000000000000000000000000000000000000000000000000000815260206004820152601e60248201527f54696d652069732070617374207468652061756374696f6e2073746172740000604482015290519081900360640190fd5b60025460ff161561165357604080517f08c379a000000000000000000000000000000000000000000000000000000000815260206004820152601860248201527f546865206c697374696e67207761732063616e63656c65640000000000000000604482015290519081900360640190fd5b600254610100900460ff168061167c5750600254610100900460ff1615801561167c5750600a54155b6116e757604080517f08c379a000000000000000000000000000000000000000000000000000000000815260206004820152601c60248201527f54686973206c697374696e67206973206e6f74206a6f696e61626c6500000000604482015290519081900360640190fd5b60065481906116fc908263ffffffff61348816565b3414801561170a5750600a34115b61175f576040517f08c379a0000000000000000000000000000000000000000000000000000000008152600401808060200182810382526033815260200180613c236033913960400191505060405180910390fd5b73ffffffffffffffffffffffffffffffffffffffff8316600090815260086020526040902060030154839074010000000000000000000000000000000000000000900460ff16156117fb576040517f08c379a0000000000000000000000000000000000000000000000000000000008152600401808060200182810382526031815260200180613c566031913960400191505060405180910390fd5b600a80546001810182556000919091527fc65a7bb8d6351c1cf70c95a316cc6a92839c986682d98bc35f958f4883f9d2a80180547fffffffffffffffffffffffff00000000000000000000000000000000000000001673ffffffffffffffffffffffffffffffffffffffff8616179055611873613a67565b3481526020808201858152600a547fffffffffffffffffffffffffffffffffffffffffffffffffffffffffffffffff016040808501918252600160808601818152600060a0880181815273ffffffffffffffffffffffffffffffffffffffff8d811683526008909852938120885181559551928601929092559251600285015560608601516003850180549451935160c08901517fffffffffffffffffffffffff000000000000000000000000000000000000000090961692909716919091177fffffffffffffffffffffff00ffffffffffffffffffffffffffffffffffffffff167401000000000000000000000000000000000000000093151593909302929092177fffffffffffffffffffff00ffffffffffffffffffffffffffffffffffffffffff16750100000000000000000000000000000000000000000095151595909502949094177fffff0000000000000000ffffffffffffffffffffffffffffffffffffffffffff1676010000000000000000000000000000000000000000000067ffffffffffffffff9384160217905560e08401516004830180546101008701517fffffffffffffffffffffffffffffffffffffffffffffffff0000000000000000909116928416929092177fffffffffffffffffffffffffffffffff0000000000000000ffffffffffffffff1668010000000000000000929093169190910291909117905561012083015160059091015580611a8f6121b5565b9092509050611abc611aa7838863ffffffff61354616565b611ab7838963ffffffff61354616565b6135ba565b50505050505050565b6060600b805480602002602001604051908101604052809291908181526020018280548015611b2a57602002820191906000526020600020905b815473ffffffffffffffffffffffffffffffffffffffff168152600190910190602001808311611aff575b5050505050905090565b6003547801000000000000000000000000000000000000000000000000900467ffffffffffffffff1690565b6000805473ffffffffffffffffffffffffffffffffffffffff16611b82613484565b73ffffffffffffffffffffffffffffffffffffffff1614611bee576040517f08c379a000000000000000000000000000000000000000000000000000000000815260040180806020018281038252602c815260200180613dac602c913960400191505060405180910390fd5b60045467ffffffffffffffff1642101580611c0b575060025460ff165b611c60576040517f08c379a0000000000000000000000000000000000000000000000000000000008152600401808060200182810382526041815260200180613ccc6041913960600191505060405180910390fd5b73ffffffffffffffffffffffffffffffffffffffff8216600090815260096020526040902060020154829060ff168015611cdb575073ffffffffffffffffffffffffffffffffffffffff811660009081526008602052604090206003015474010000000000000000000000000000000000000000900460ff16155b80611d5a575073ffffffffffffffffffffffffffffffffffffffff811660009081526009602052604090206002015460ff16158015611d5a575073ffffffffffffffffffffffffffffffffffffffff811660009081526008602052604090206003015474010000000000000000000000000000000000000000900460ff165b611dc557604080517f08c379a000000000000000000000000000000000000000000000000000000000815260206004820181905260248201527f5468652061646472657373206973206e6f742070617274696369706174696e67604482015290519081900360640190fd5b73ffffffffffffffffffffffffffffffffffffffff83166000908152600860205260408120600301548190819074010000000000000000000000000000000000000000900460ff1615611e1b5760019150611e50565b73ffffffffffffffffffffffffffffffffffffffff861660009081526009602052604090206002015460ff1615611e50575060015b60025460ff1615611e885773ffffffffffffffffffffffffffffffffffffffff86166000908152600860205260409020549250611eea565b8015611ebb5773ffffffffffffffffffffffffffffffffffffffff86166000908152600960205260409020549250611eea565b8115611eea5773ffffffffffffffffffffffffffffffffffffffff861660009081526008602052604090205492505b60008311611f5957604080517f08c379a000000000000000000000000000000000000000000000000000000000815260206004820152601c60248201527f5468657265206973206e6f7468696e6720746f20776974686472617700000000604482015290519081900360640190fd5b73ffffffffffffffffffffffffffffffffffffffff8616611fdb57604080517f08c379a000000000000000000000000000000000000000000000000000000000815260206004820152601e60248201527f4e6f207769746864726177616c206163636f756e742073656c65637465640000604482015290519081900360640190fd5b801561206f5773ffffffffffffffffffffffffffffffffffffffff86166000818152600960209081526040808320928355600290920180547fffffffffffffffffffffffffffffffffffffffffffffffffffffffffffffff00169055815160018152915130927ff2abf94c6b0da8d85e7c6cb49df089e622137e0f674d2d019b4ee40660e3815392908290030190a36120fb565b81156120fb5773ffffffffffffffffffffffffffffffffffffffff8616600081815260086020908152604080832083815560030180547fffffffffffffffffffffff00ffffffffffffffffffffffffffffffffffffffff16905580519283525130927ff2abf94c6b0da8d85e7c6cb49df089e622137e0f674d2d019b4ee40660e3815392908290030190a35b60405173ffffffffffffffffffffffffffffffffffffffff87169084156108fc029085906000818181858888f1935050505015801561213e573d6000803e3d6000fd5b509195945050505050565b600254760100000000000000000000000000000000000000000000900463ffffffff1690565b73ffffffffffffffffffffffffffffffffffffffff1660009081526008602052604090206003015474010000000000000000000000000000000000000000900460ff1690565b6005546fffffffffffffffffffffffffffffffff81169060801c9091565b73ffffffffffffffffffffffffffffffffffffffff908116600090815260086020526040902080546001820154600383015460049093015491949093760100000000000000000000000000000000000000000000840467ffffffffffffffff90811694818516946801000000000000000090049091169291811691750100000000000000000000000000000000000000000090910460ff1690565b60025460035460045460065460075460ff8086169661010087049091169562010000900473ffffffffffffffffffffffffffffffffffffffff169467ffffffffffffffff80821695680100000000000000008084048316967001000000000000000000000000000000008504841696780100000000000000000000000000000000000000000000000090950484169584841695929093049093169291565b60065490565b73ffffffffffffffffffffffffffffffffffffffff1660009081526009602052604090206002015460ff1690565b60025462010000900473ffffffffffffffffffffffffffffffffffffffff1690565b60005473ffffffffffffffffffffffffffffffffffffffff16612383613484565b73ffffffffffffffffffffffffffffffffffffffff16146123ef576040517f08c379a000000000000000000000000000000000000000000000000000000000815260040180806020018281038252602c815260200180613dac602c913960400191505060405180910390fd5b6003547801000000000000000000000000000000000000000000000000900467ffffffffffffffff16421061248557604080517f08c379a000000000000000000000000000000000000000000000000000000000815260206004820152601c60248201527f54696d652069732070617374207468652061756374696f6e20656e6400000000604482015290519081900360640190fd5b600280547fffffffffffffffffffffffffffffffffffffffffffffffffffffffffffffff00166001179055565b6000805473ffffffffffffffffffffffffffffffffffffffff166124d4613484565b73ffffffffffffffffffffffffffffffffffffffff1614612540576040517f08c379a000000000000000000000000000000000000000000000000000000000815260040180806020018281038252602c815260200180613dac602c913960400191505060405180910390fd5b60035468010000000000000000900467ffffffffffffffff164210156125c757604080517f08c379a000000000000000000000000000000000000000000000000000000000815260206004820152601f60248201527f54696d65206973206265666f7265206c697374696e67206372656174696f6e00604482015290519081900360640190fd5b600354700100000000000000000000000000000000900467ffffffffffffffff16421061265557604080517f08c379a000000000000000000000000000000000000000000000000000000000815260206004820152601e60248201527f54696d652069732070617374207468652061756374696f6e2073746172740000604482015290519081900360640190fd5b60025460ff16156126c757604080517f08c379a000000000000000000000000000000000000000000000000000000000815260206004820152601860248201527f546865206c697374696e67207761732063616e63656c65640000000000000000604482015290519081900360640190fd5b73ffffffffffffffffffffffffffffffffffffffff8216600090815260086020526040902060030154829074010000000000000000000000000000000000000000900460ff16612762576040517f08c379a0000000000000000000000000000000000000000000000000000000008152600401808060200182810382526033815260200180613af96033913960400191505060405180910390fd5b73ffffffffffffffffffffffffffffffffffffffff8316600090815260086020526040902054806127f457604080517f08c379a000000000000000000000000000000000000000000000000000000000815260206004820152601c60248201527f5468657265206973206e6f7468696e6720746f20776974686472617700000000604482015290519081900360640190fd5b6000806127ff6121b5565b73ffffffffffffffffffffffffffffffffffffffff8816600090815260086020526040902060010154919350915061287c9061284290849063ffffffff61350416565b73ffffffffffffffffffffffffffffffffffffffff8816600090815260086020526040902060010154611ab790849063ffffffff61350416565b73ffffffffffffffffffffffffffffffffffffffff8616600090815260086020526040812081815560018101919091556003810180547fffffffffffffffffffffff00ffffffffffffffffffffffffffffffffffffffff169055600201546120fb90613605565b60018054604080516020601f60027fffffffffffffffffffffffffffffffffffffffffffffffffffffffffffffffff6101008789161502019095169490940493840181900481028201810190925282815260609390929091830182828015611b2a5780601f1061296157610100808354040283529160200191611b2a565b820191906000526020600020905b81548152906001019060200180831161296f57509395945050505050565b60005473ffffffffffffffffffffffffffffffffffffffff166129ae613484565b73ffffffffffffffffffffffffffffffffffffffff1614612a1a576040517f08c379a000000000000000000000000000000000000000000000000000000000815260040180806020018281038252602c815260200180613dac602c913960400191505060405180910390fd5b60045467ffffffffffffffff16421015612a9557604080517f08c379a000000000000000000000000000000000000000000000000000000000815260206004820152601b60248201527f54696d65206973206e6f7420706173742072657665616c20656e640000000000604482015290519081900360640190fd5b600254849073ffffffffffffffffffffffffffffffffffffffff808316620100009092041614612b10576040517f08c379a0000000000000000000000000000000000000000000000000000000008152600401808060200182810382526024815260200180613d3d6024913960400191505060405180910390fd5b73ffffffffffffffffffffffffffffffffffffffff8416600090815260086020526040902060030154849074010000000000000000000000000000000000000000900460ff16612bab576040517f08c379a0000000000000000000000000000000000000000000000000000000008152600401808060200182810382526033815260200180613af96033913960400191505060405180910390fd5b6000612bb56121b5565b50905080612c0e576040517f08c379a000000000000000000000000000000000000000000000000000000000815260040180806020018281038252603c815260200180613b2c603c913960400191505060405180910390fd5b50505073ffffffffffffffffffffffffffffffffffffffff92831660009081526008602052604090206003810180547fffff0000000000000000ffffffffffffffffffffffffffffffffffffffffffff167601000000000000000000000000000000000000000000004267ffffffffffffffff1602177fffffffffffffffffffffffff00000000000000000000000000000000000000001693909416929092179092556005015550565b60005473ffffffffffffffffffffffffffffffffffffffff1690565b73ffffffffffffffffffffffffffffffffffffffff8116600090815260096020526040812060010154819081908190819081908190819081908190158015612d44575073ffffffffffffffffffffffffffffffffffffffff8b1660009081526009602052604090206002015460ff165b15612d525760019150612dbb565b73ffffffffffffffffffffffffffffffffffffffff8b1660009081526009602052604090206001015415801590612db1575073ffffffffffffffffffffffffffffffffffffffff8b1660009081526009602052604090206002015460ff165b15612dbb57600192505b60045467ffffffffffffffff164210801590612dfb575073ffffffffffffffffffffffffffffffffffffffff8b1660009081526009602052604090205415155b8015612e58575060025473ffffffffffffffffffffffffffffffffffffffff8c811662010000909204161480612e58575073ffffffffffffffffffffffffffffffffffffffff8b1660009081526009602052604090206001015415155b15612e61575060015b73ffffffffffffffffffffffffffffffffffffffff8b166000908152600960205260409020805460018201546002909201549c9d909c919b5060ff90911699509297509095509350915050565b6060600a805480602002602001604051908101604052809291908181526020018280548015611b2a5760200282019190600052602060002090815473ffffffffffffffffffffffffffffffffffffffff168152600190910190602001808311611aff575050505050905090565b60005473ffffffffffffffffffffffffffffffffffffffff16612f3c613484565b73ffffffffffffffffffffffffffffffffffffffff1614612fa8576040517f08c379a000000000000000000000000000000000000000000000000000000000815260040180806020018281038252602c815260200180613dac602c913960400191505060405180910390fd5b73ffffffffffffffffffffffffffffffffffffffff8316600090815260096020526040902060020154839060ff1661302b576040517f08c379a0000000000000000000000000000000000000000000000000000000008152600401808060200182810382526039815260200180613b686039913960400191505060405180910390fd5b60045467ffffffffffffffff1642106130a557604080517f08c379a000000000000000000000000000000000000000000000000000000000815260206004820152601b60248201527f54696d652069732070617374207468652072657665616c20656e640000000000604482015290519081900360640190fd5b6003547801000000000000000000000000000000000000000000000000900467ffffffffffffffff1642101561313c57604080517f08c379a000000000000000000000000000000000000000000000000000000000815260206004820181905260248201527f54696d65206973206e6f742070617374207468652061756374696f6e20656e64604482015290519081900360640190fd5b60025460ff16156131ae57604080517f08c379a000000000000000000000000000000000000000000000000000000000815260206004820152601860248201527f546865206c697374696e67207761732063616e63656c65640000000000000000604482015290519081900360640190fd5b60006131b86121b5565b50905080613211576040517f08c379a000000000000000000000000000000000000000000000000000000000815260040180806020018281038252603c815260200180613b2c603c913960400191505060405180910390fd5b6040805160208082018790528183018690528251808303840181526060909201835281519181019190912073ffffffffffffffffffffffffffffffffffffffff88166000908152600990925291902060010154146132ba576040517f08c379a000000000000000000000000000000000000000000000000000000000815260040180806020018281038252604c815260200180613bd7604c913960600191505060405180910390fd5b73ffffffffffffffffffffffffffffffffffffffff85166000908152600960205260408120805482825560019091019190915560065485111561338e5760405173ffffffffffffffffffffffffffffffffffffffff87169082156108fc029083906000818181858888f1935050505015801561333a573d6000803e3d6000fd5b5060408051868152905173ffffffffffffffffffffffffffffffffffffffff88169130917f295a53f7ad83dd402978c694a2480e8f26286fad137ee30e55f1a39936be2fac9181900360200190a35061347d565b60006133986121b5565b91505060006133a8888884613762565b905080156133e057600254606490760100000000000000000000000000000000000000000000900463ffffffff168389020204830392505b60405173ffffffffffffffffffffffffffffffffffffffff89169084156108fc029085906000818181858888f19350505050158015613423573d6000803e3d6000fd5b506040805188815260208101859052815173ffffffffffffffffffffffffffffffffffffffff8b169230927f76be86c6baddefe6c630df360146dd6a1af7eabc8746cb2e92199ebd59cabd12929081900390910190a35050505b5050505050565b3390565b600082613497575060006134fe565b828202828482816134a457fe5b04146134fb576040517f08c379a0000000000000000000000000000000000000000000000000000000008152600401808060200182810382526021815260200180613d616021913960400191505060405180910390fd5b90505b92915050565b60006134fb83836040518060400160405280601e81526020017f536166654d6174683a207375627472616374696f6e206f766572666c6f770000815250613937565b6000828201838110156134fb57604080517f08c379a000000000000000000000000000000000000000000000000000000000815260206004820152601b60248201527f536166654d6174683a206164646974696f6e206f766572666c6f770000000000604482015290519081900360640190fd5b60801b17600555565b60006134fb83836040518060400160405280601a81526020017f536166654d6174683a206469766973696f6e206279207a65726f0000000000008152506139e8565b600a54808210613660576040517f08c379a0000000000000000000000000000000000000000000000000000000008152600401808060200182810382526036815260200180613ba16036913960400191505060405180910390fd5b600a600182038154811061367057fe5b600091825260209091200154600a805473ffffffffffffffffffffffffffffffffffffffff90921691849081106136a357fe5b9060005260206000200160006101000a81548173ffffffffffffffffffffffffffffffffffffffff021916908373ffffffffffffffffffffffffffffffffffffffff160217905550600a60018203815481106136fb57fe5b600091825260209091200180547fffffffffffffffffffffffff0000000000000000000000000000000000000000169055600a80549061375d907fffffffffffffffffffffffffffffffffffffffffffffffffffffffffffffffff8301613abb565b505050565b6007546000908310801590613794575060025462010000900473ffffffffffffffffffffffffffffffffffffffff1615155b156137a157506000613930565b60025462010000900473ffffffffffffffffffffffffffffffffffffffff16156138a55760025460075462010000820473ffffffffffffffffffffffffffffffffffffffff16916108fc91606491760100000000000000000000000000000000000000000000900463ffffffff1690860202049081150290604051600060405180830381858888f1935050505015801561383f573d6000803e3d6000fd5b5060025462010000900473ffffffffffffffffffffffffffffffffffffffff16600081815260096020908152604091829020548251908152915130927f228ae0329bed1ff4b8fc59554d89b563faa1af004d7df150c967445f60b56b5992908290030190a35b6002805473ffffffffffffffffffffffffffffffffffffffff86166201000081027fffffffffffffffffffff0000000000000000000000000000000000000000ffff90921691909117909155600784905560408051858152905130917f58a02e2798d1e8806d69651f510a16b9d3d2f48ca38423cccf00484281ceda63919081900360200190a35060015b9392505050565b600081848411156139e0576040517f08c379a00000000000000000000000000000000000000000000000000000000081526004018080602001828103825283818151815260200191508051906020019080838360005b838110156139a557818101518382015260200161398d565b50505050905090810190601f1680156139d25780820380516001836020036101000a031916815260200191505b509250505060405180910390fd5b505050900390565b60008183613a51576040517f08c379a00000000000000000000000000000000000000000000000000000000081526020600482018181528351602484015283519092839260449091019190850190808383600083156139a557818101518382015260200161398d565b506000838581613a5d57fe5b0495945050505050565b6040805161014081018252600080825260208201819052918101829052606081018290526080810182905260a0810182905260c0810182905260e08101829052610100810182905261012081019190915290565b81548183558181111561375d5760008381526020902061375d918101908301610e5a91905b80821115613af45760008155600101613ae0565b509056fe5468652063616e646964617465206973206e6f742070617274696369706174696e67206f72206973206120737570706c69657254686973206c697374696e67206973206e6f742061637469766520616e796d6f726520617320697420646f65736e27742068617665206275796572735468652061646472657373206973206e6f7420612070617274696369706174696e6720737570706c696572206f72206973206120627579657242757965722063616e6e6f74206265206275726e656420617420616e20696e646578206265796f6e64206172726179206c656e677468546865206269642077617320696e636f72726563746c792072657665616c6564206f722069742068617320616c7265616479206265656e2072657665616c65642c20726576657274696e672e54686520616d6f756e7420696e20776569206973206e6f7420636f7272656374206f722069732062656c6f7720313020776569546865206164647265737320697320616c726561647920612063616e64696461746520696e20746865206c697374696e67546865207061727469636970616e7420646f6573206e6f7420686176652074686520726571756972656420726174696e6720746f206a6f696e20746865206c697374696e6754696d65206973206e6f7420706173742072657665616c20656e642c206f72207468652061756374696f6e20686173206e6f74206265656e2063616e63656c6564546865206164647265737320697320616c7265616479206120737570706c69657220696e20746865206c697374696e6754686520626964646572206973206e6f74207468652061756374696f6e2077696e6e6572536166654d6174683a206d756c7469706c69636174696f6e206f766572666c6f775365636f6e646172793a206e6577207072696d61727920697320746865207a65726f20616464726573735365636f6e646172793a2063616c6c6572206973206e6f7420746865207072696d617279206163636f756e74a265627a7a72315820ede57aca6d21531771500b23dd4985f93bd288e3b0d3d23dd7eb86820c0ceff864736f6c6343000511003241756374696f6e2073746172742074696d65206d757374206265206265666f72652061756374696f6e20656e642074696d654372656174696f6e2074696d65206d7573742062652061667465722061756374696f6e206c61756e63682074696d6541756374696f6e20656e642074696d65206d757374206265206265666f726520656e642074696d654372656174696f6e2074696d652063616e277420626520696e20746865207061737454686520696e74656e646564206d6178207072696365206d75737420626520626967676572207468616e2031302057656920746f20616c6c6f77207468652070657263656e7475616c206665652063616c63756c6174696f6e20616e6420666f722062757965727320746f20656e7465722028616e64206174206c65617374206f6e6520626964295468652075736572206973206e6f7420616e2061646d696e206f6e2074686520666163746f72795468652066756e6374696f6e2063616c6c6572206d757374207472616e7366657220312066696e6e65792061732066656520666f7220746865206372656174696f6ea265627a7a723158207f23f9b02d04dc5d48d2ac20b385748008659cab0b5302ae44c882994e693b1b64736f6c634300051100325468652075736572206973206e6f7420616e2061646d696e206f6e2074686520666163746f7279",
    "source": "pragma solidity ^0.5.0;\n\nimport \"./AuctionListing.sol\";\nimport \"./ListingInteraction.sol\";\n\n/**\n* @title ListingFactory\n* @dev ListingFactory contract that is instantiated once for the entire lifetime of the dapp\n* (unless upgraded). \n* @dev Intended usage: The contract allows for the instantiation of new AuctionListing\n* contracts with given parameters. Generating these contracts through this primary contract binds\n* the created AuctionListing to this contract's address and only allowing transactions to occur through\n* it.\n*/\ncontract ListingFactory {\n    using SafeMath for uint256;\n\n    /***********************************|\n    |             Events                |\n    |__________________________________*/\n\n    //Events when interacting with the Listing's instances\n    event ListingProduced(address indexed listingAddress, address indexed creator); \n    \n    /***********************************|\n    |             Storage               |\n    |__________________________________*/\n\n    // key : Auction Listing , value : user\n    mapping (address => address) public createdBy;\n\n    address[] private listingAddresses;\n    address payable private listingInteractionContract;\n    address payable private feeCollector;\n    uint256 revealTime;\n    /***********************************|\n    |             Modifiers             |\n    |__________________________________*/\n\n    modifier onlyWhitelistAdmin (address payable _interactionContract) {\n        require(ListingInteraction(_interactionContract).isWhitelistAdmin(msg.sender),\"The user is not an admin on the factory\");\n        _;\n    }\n\n    modifier onlyAuthListingCreators() {\n        require(ListingInteraction(listingInteractionContract).isBuyer(msg.sender)||\n        ListingInteraction(listingInteractionContract).isSupplier(msg.sender), \"Not an authorized creator\");\n        _;\n    }\n\n    /***********************************|\n    |             Functions             |\n    |__________________________________*/\n\n    constructor (address payable _interactionContract, address payable _feeCollector) public onlyWhitelistAdmin(_interactionContract) {\n        listingInteractionContract = _interactionContract;\n        feeCollector = _feeCollector;\n        revealTime = 500;\n    }\n\n    function setListingInteractionContract (address payable _interactionContract) external onlyWhitelistAdmin(_interactionContract) {\n        listingInteractionContract = _interactionContract;\n    }\n\n\n    function setRevealTime (uint256 _revealTime) external onlyWhitelistAdmin(listingInteractionContract) {\n        revealTime = _revealTime;\n    }\n\n    /**\n    * @dev Creates a listing with static data without participants.\n    * @param _uri The product identificator\n    * @param _groupable Whether the proposal can be syndicated or not\n    * @param _ltMax The listing maximum lead time\n    * @param _creationTime Listing creation time\n    * @param _auctionTime Auction start time\n    * @param _endTime End of the auction time\n    * @param _minMerit The minimum supplier merit to participate in this listing\n    * @param _maxPrice The maximum price to be paid by each participant\n    */\n    function newListing (\n        string calldata _uri,\n        bool _groupable,\n        uint64 _ltMax,\n        uint256 _creationTime, \n        uint256 _auctionTime, \n        uint256 _endTime,\n        uint64 _minMerit,\n        uint256 _maxPrice\n        ) \n        external\n        onlyAuthListingCreators\n        payable\n    {\n        (uint256 fList, uint32 fPBid) = ListingInteraction(listingInteractionContract).getFeeSchedule();\n\n        require(_maxPrice > 10, \"The intended max price must be bigger than 10 Wei to allow the percentual fee calculation and for buyers to enter (and at least one bid)\");\n        require(msg.value == fList, \"The function caller must transfer 1 finney as fee for the creation\");\n        uint256 timePacked = _creationTime;\n        timePacked |= _auctionTime << 64;\n        timePacked |= _endTime << 128;\n        timePacked |= (revealTime + _endTime) << 192;\n\n        //Creates a new auction listing contract (with basic information)\n        AuctionListing listing = new AuctionListing(\n            _uri,\n            _groupable,\n            _ltMax,\n            timePacked,\n            _minMerit,\n            _maxPrice,\n            fPBid\n        );\n\n        listingAddresses.push(address(listing));\n        createdBy[address(listing)]= msg.sender;\n        AuctionListing(listing).transferPrimary(listingInteractionContract);\n        feeCollector.transfer(msg.value);\n\n        emit ListingProduced(address(listing),msg.sender);\n    }\n\n    /**\n    * @dev This function gets the number of listings created\n    */\n    function getListingsCount() external view returns (uint256){\n        return listingAddresses.length;\n    }\n\n    /**\n    * @dev This function gets the addresses of listings created\n    */\n    function getListingAddresses() external view returns (address[] memory){\n        return listingAddresses;\n    }\n\n    /**\n    * @dev This function gets a specific listing creator\n    */\n    function getListingCreator(address _listing) external view returns (address){\n        return createdBy[_listing];\n    }\n}\n",
    "sourcePath": "/mnt/c/.dev/briing-subgraph/contracts/ListingFactory.sol",
    "compiler": {
        "name": "solc",
        "version": "0.5.17+commit.d19bba13.Emscripten.clang"
    },
    "schemaVersion": "3.0.23",
    "updatedAt": "2020-05-07T14:25:39.919Z",
    "networkType": "ethereum",
    "devdoc": {
        "details": "ListingFactory contract that is instantiated once for the entire lifetime of the dapp (unless upgraded). Intended usage: The contract allows for the instantiation of new AuctionListing contracts with given parameters. Generating these contracts through this primary contract binds the created AuctionListing to this contract's address and only allowing transactions to occur through it.",
        "methods": {
            "getListingAddresses()": {
                "details": "This function gets the addresses of listings created"
            },
            "getListingCreator(address)": {
                "details": "This function gets a specific listing creator"
            },
            "getListingsCount()": {
                "details": "This function gets the number of listings created"
            },
            "newListing(string,bool,uint64,uint256,uint256,uint256,uint64,uint256)": {
                "details": "Creates a listing with static data without participants.",
                "params": {
                    "_auctionTime": "Auction start time",
                    "_creationTime": "Listing creation time",
                    "_endTime": "End of the auction time",
                    "_groupable": "Whether the proposal can be syndicated or not",
                    "_ltMax": "The listing maximum lead time",
                    "_maxPrice": "The maximum price to be paid by each participant",
                    "_minMerit": "The minimum supplier merit to participate in this listing",
                    "_uri": "The product identificator"
                }
            }
        },
        "title": "ListingFactory"
    },
    "userdoc": {
        "methods": {
            "constructor": "*********************************| |             Functions             | |__________________________________"
        }
    }
}