{
  "contractName": "Gravity",
  "abi": [
    {
      "inputs": [],
      "stateMutability": "nonpayable",
      "type": "constructor"
    },
    {
      "anonymous": false,
      "inputs": [
        {
          "indexed": false,
          "internalType": "uint256",
          "name": "id",
          "type": "uint256"
        },
        {
          "indexed": false,
          "internalType": "address",
          "name": "owner",
          "type": "address"
        },
        {
          "indexed": false,
          "internalType": "string",
          "name": "displayName",
          "type": "string"
        }
      ],
      "name": "NewGravatar",
      "type": "event"
    },
    {
      "anonymous": false,
      "inputs": [
        {
          "indexed": false,
          "internalType": "uint256",
          "name": "id",
          "type": "uint256"
        },
        {
          "indexed": false,
          "internalType": "address",
          "name": "owner",
          "type": "address"
        },
        {
          "indexed": false,
          "internalType": "string",
          "name": "displayName",
          "type": "string"
        }
      ],
      "name": "UpdatedGravatar",
      "type": "event"
    },
    {
      "inputs": [
        {
          "internalType": "uint256",
          "name": "",
          "type": "uint256"
        }
      ],
      "name": "gravatarToOwner",
      "outputs": [
        {
          "internalType": "address",
          "name": "",
          "type": "address"
        }
      ],
      "stateMutability": "view",
      "type": "function",
      "constant": true
    },
    {
      "inputs": [
        {
          "internalType": "uint256",
          "name": "",
          "type": "uint256"
        }
      ],
      "name": "gravatars",
      "outputs": [
        {
          "internalType": "address",
          "name": "owner",
          "type": "address"
        },
        {
          "internalType": "string",
          "name": "displayName",
          "type": "string"
        }
      ],
      "stateMutability": "view",
      "type": "function",
      "constant": true
    },
    {
      "inputs": [
        {
          "internalType": "address",
          "name": "",
          "type": "address"
        }
      ],
      "name": "ownerToGravatar",
      "outputs": [
        {
          "internalType": "uint256",
          "name": "",
          "type": "uint256"
        }
      ],
      "stateMutability": "view",
      "type": "function",
      "constant": true
    },
    {
      "inputs": [
        {
          "internalType": "string",
          "name": "_displayName",
          "type": "string"
        }
      ],
      "name": "createGravatar",
      "outputs": [],
      "stateMutability": "nonpayable",
      "type": "function"
    },
    {
      "inputs": [
        {
          "internalType": "string",
          "name": "_displayName",
          "type": "string"
        }
      ],
      "name": "updateGravatarName",
      "outputs": [],
      "stateMutability": "nonpayable",
      "type": "function"
    },
    {
      "inputs": [
        {
          "internalType": "address",
          "name": "owner",
          "type": "address"
        }
      ],
      "name": "getGravatar",
      "outputs": [
        {
          "internalType": "string",
          "name": "",
          "type": "string"
        }
      ],
      "stateMutability": "view",
      "type": "function",
      "constant": true
    },
    {
      "inputs": [
        {
          "internalType": "uint256",
          "name": "id",
          "type": "uint256"
        }
      ],
      "name": "getOwner",
      "outputs": [
        {
          "internalType": "address",
          "name": "",
          "type": "address"
        }
      ],
      "stateMutability": "view",
      "type": "function",
      "constant": true
    },
    {
      "inputs": [],
      "name": "getId",
      "outputs": [
        {
          "internalType": "uint256",
          "name": "",
          "type": "uint256"
        }
      ],
      "stateMutability": "view",
      "type": "function",
      "constant": true
    }
  ],
  "bytecode": "0x608060405234801561001057600080fd5b5060006040518060400160405280600073ffffffffffffffffffffffffffffffffffffffff1681526020016040518060400160405280600881526020017f4d7974686963616c000000000000000000000000000000000000000000000000815250815250908060018154018082558091505060019003906000526020600020906002020160009091909190915060008201518160000160006101000a81548173ffffffffffffffffffffffffffffffffffffffff021916908373ffffffffffffffffffffffffffffffffffffffff1602179055506020820151816001019080519060200190610100929190610108565b5050506101ad565b828054600181600116156101000203166002900490600052602060002090601f016020900481019282601f1061014957805160ff1916838001178555610177565b82800160010185558215610177579182015b8281111561017657825182559160200191906001019061015b565b5b5090506101849190610188565b5090565b6101aa91905b808211156101a657600081600090555060010161018e565b5090565b90565b610e70806101bc6000396000f3fe608060405234801561001057600080fd5b50600436106100885760003560e01c8063a5ac36341161005b578063a5ac36341461024f578063b18588fb146102a7578063c41a360a14610320578063d5ce24ed1461038e57610088565b8063359c1f721461008d5780635d1ca6311461014a57806372f067dc1461016857806388d0d391146101e1575b600080fd5b6100cf600480360360208110156100a357600080fd5b81019080803573ffffffffffffffffffffffffffffffffffffffff169060200190929190505050610468565b6040518080602001828103825283818151815260200191508051906020019080838360005b8381101561010f5780820151818401526020810190506100f4565b50505050905090810190601f16801561013c5780820380516001836020036101000a031916815260200191505b509250505060405180910390f35b61015261056d565b6040518082815260200191505060405180910390f35b6101df6004803603602081101561017e57600080fd5b810190808035906020019064010000000081111561019b57600080fd5b8201836020820111156101ad57600080fd5b803590602001918460018302840111640100000000831117156101cf57600080fd5b90919293919293905050506105b9565b005b61020d600480360360208110156101f757600080fd5b81019080803590602001909291905050506108b5565b604051808273ffffffffffffffffffffffffffffffffffffffff1673ffffffffffffffffffffffffffffffffffffffff16815260200191505060405180910390f35b6102916004803603602081101561026557600080fd5b81019080803573ffffffffffffffffffffffffffffffffffffffff1690602001909291905050506108e8565b6040518082815260200191505060405180910390f35b61031e600480360360208110156102bd57600080fd5b81019080803590602001906401000000008111156102da57600080fd5b8201836020820111156102ec57600080fd5b8035906020019184600183028401116401000000008311171561030e57600080fd5b9091929391929390505050610900565b005b61034c6004803603602081101561033657600080fd5b8101908080359060200190929190505050610bea565b604051808273ffffffffffffffffffffffffffffffffffffffff1673ffffffffffffffffffffffffffffffffffffffff16815260200191505060405180910390f35b6103ba600480360360208110156103a457600080fd5b8101908080359060200190929190505050610c2c565b604051808373ffffffffffffffffffffffffffffffffffffffff1673ffffffffffffffffffffffffffffffffffffffff16815260200180602001828103825283818151815260200191508051906020019080838360005b8381101561042c578082015181840152602081019050610411565b50505050905090810190601f1680156104595780820380516001836020036101000a031916815260200191505b50935050505060405180910390f35b60606000600260008473ffffffffffffffffffffffffffffffffffffffff1673ffffffffffffffffffffffffffffffffffffffff168152602001908152602001600020549050600081815481106104bb57fe5b90600052602060002090600202016001018054600181600116156101000203166002900480601f0160208091040260200160405190810160405280929190818152602001828054600181600116156101000203166002900480156105605780601f1061053557610100808354040283529160200191610560565b820191906000526020600020905b81548152906001019060200180831161054357829003601f168201915b5050505050915050919050565b600080600260003373ffffffffffffffffffffffffffffffffffffffff1673ffffffffffffffffffffffffffffffffffffffff1681526020019081526020016000205490508091505090565b6000600260003373ffffffffffffffffffffffffffffffffffffffff1673ffffffffffffffffffffffffffffffffffffffff168152602001908152602001600020541461066e576040517f08c379a000000000000000000000000000000000000000000000000000000000815260040180806020018281038252601e8152602001807f4164647265737320616c7265616479206861732061206772617661746172000081525060200191505060405180910390fd5b600060405180604001604052803373ffffffffffffffffffffffffffffffffffffffff16815260200184848080601f016020809104026020016040519081016040528093929190818152602001838380828437600081840152601f19601f82011690508083019250505050505050815250908060018154018082558091505060019003906000526020600020906002020160009091909190915060008201518160000160006101000a81548173ffffffffffffffffffffffffffffffffffffffff021916908373ffffffffffffffffffffffffffffffffffffffff160217905550602082015181600101908051906020019061076b929190610d15565b50505060006001600080549050039050336001600083815260200190815260200160002060006101000a81548173ffffffffffffffffffffffffffffffffffffffff021916908373ffffffffffffffffffffffffffffffffffffffff16021790555080600260003373ffffffffffffffffffffffffffffffffffffffff1673ffffffffffffffffffffffffffffffffffffffff168152602001908152602001600020819055507f020625f7f9587e7c695fb4a445b0af06371b89c7defc885029a00c4e1e43f78a81338585604051808581526020018473ffffffffffffffffffffffffffffffffffffffff1673ffffffffffffffffffffffffffffffffffffffff168152602001806020018281038252848482818152602001925080828437600081840152601f19601f8201169050808301925050509550505050505060405180910390a1505050565b60016020528060005260406000206000915054906101000a900473ffffffffffffffffffffffffffffffffffffffff1681565b60026020528060005260406000206000915090505481565b6000600260003373ffffffffffffffffffffffffffffffffffffffff1673ffffffffffffffffffffffffffffffffffffffff1681526020019081526020016000205414156109b6576040517f08c379a000000000000000000000000000000000000000000000000000000000815260040180806020018281038252601b8152602001807f5573657220646f65736e2774206861766520677261766174617273000000000081525060200191505060405180910390fd5b6000600260003373ffffffffffffffffffffffffffffffffffffffff1673ffffffffffffffffffffffffffffffffffffffff1681526020019081526020016000205481548110610a0257fe5b906000526020600020906002020160000160009054906101000a900473ffffffffffffffffffffffffffffffffffffffff1673ffffffffffffffffffffffffffffffffffffffff163373ffffffffffffffffffffffffffffffffffffffff1614610ad4576040517f08c379a00000000000000000000000000000000000000000000000000000000081526004018080602001828103825260178152602001807f477261766174617220646f6573206e6f7420657869737400000000000000000081525060200191505060405180910390fd5b6000600260003373ffffffffffffffffffffffffffffffffffffffff1673ffffffffffffffffffffffffffffffffffffffff168152602001908152602001600020549050828260008381548110610b2757fe5b90600052602060002090600202016001019190610b45929190610d95565b507fd63bb6ee855bc7708a8b72dec7bb11dab842f7eebe0f040b4b95919acc59fb4381338585604051808581526020018473ffffffffffffffffffffffffffffffffffffffff1673ffffffffffffffffffffffffffffffffffffffff168152602001806020018281038252848482818152602001925080828437600081840152601f19601f8201169050808301925050509550505050505060405180910390a1505050565b6000806001600084815260200190815260200160002060009054906101000a900473ffffffffffffffffffffffffffffffffffffffff16905080915050919050565b60008181548110610c3957fe5b90600052602060002090600202016000915090508060000160009054906101000a900473ffffffffffffffffffffffffffffffffffffffff1690806001018054600181600116156101000203166002900480601f016020809104026020016040519081016040528092919081815260200182805460018160011615610100020316600290048015610d0b5780601f10610ce057610100808354040283529160200191610d0b565b820191906000526020600020905b815481529060010190602001808311610cee57829003601f168201915b5050505050905082565b828054600181600116156101000203166002900490600052602060002090601f016020900481019282601f10610d5657805160ff1916838001178555610d84565b82800160010185558215610d84579182015b82811115610d83578251825591602001919060010190610d68565b5b509050610d919190610e15565b5090565b828054600181600116156101000203166002900490600052602060002090601f016020900481019282601f10610dd657803560ff1916838001178555610e04565b82800160010185558215610e04579182015b82811115610e03578235825591602001919060010190610de8565b5b509050610e119190610e15565b5090565b610e3791905b80821115610e33576000816000905550600101610e1b565b5090565b9056fea26469706673582212204db43baaaec25f2a9b2ae8c91d38b9f657ea886e5705aeb31f0e693ed4a6172c64736f6c63430006070033",
  "immutableReferences": {},
  "source": "pragma solidity ^0.6.0;\n\ncontract Gravity {\n  event NewGravatar(uint id, address owner, string displayName);\n  event UpdatedGravatar(uint id, address owner, string displayName);\n\n  struct Gravatar {\n    address owner;\n    string displayName;\n  }\n\n  Gravatar[] public gravatars;\n\n  mapping (uint => address) public gravatarToOwner;\n  mapping (address => uint) public ownerToGravatar;\n\n  // the gravatar at position 0 of gravatars[]\n  // is fake\n  // it's a mythical gravatar\n  // that doesn't really exist\n  // this function will be invoked when this contract is deployed\n  // but then no more\n  constructor() public {\n      gravatars.push(Gravatar(address(0), \"Mythical\"));\n  }\n\n  function createGravatar(string calldata _displayName) external {\n    require(ownerToGravatar[msg.sender] == 0, \"Address already has a gravatar\");\n    gravatars.push(Gravatar(msg.sender, _displayName));\n\n    uint id = gravatars.length-1;\n\n    gravatarToOwner[id] = msg.sender;\n    ownerToGravatar[msg.sender] = id;\n\n    emit NewGravatar(id, msg.sender, _displayName);\n  }\n\n  function updateGravatarName(string calldata _displayName ) external {\n    require(ownerToGravatar[msg.sender] != 0, \"User doesn't have gravatars\");\n    require(msg.sender == gravatars[ownerToGravatar[msg.sender]].owner, \"Gravatar does not exist\");\n\n    uint id = ownerToGravatar[msg.sender];\n\n    gravatars[id].displayName = _displayName;\n    emit UpdatedGravatar(id, msg.sender, _displayName);\n  }\n\n  function getGravatar(address owner) external view returns (string memory) {\n    uint id = ownerToGravatar[owner];\n    return (gravatars[id].displayName);\n  }\n\n  function getOwner(uint id) external view returns (address) {\n    address owner = gravatarToOwner[id];\n    return (owner);\n  }\n\n  function getId() external view returns (uint) {\n    uint id = ownerToGravatar[msg.sender];\n    return (id);\n  }\n}\n",
  "sourcePath": "/mnt/c/.dev/contracts-starter/contracts/Gravity.sol",
  "compiler": {
    "name": "solc",
    "version": "0.6.7+commit.b8d736ae.Emscripten.clang"
  },
  "schemaVersion": "3.1.0",
  "updatedAt": "2020-05-08T16:06:48.855Z",
  "networkType": "ethereum",
  "devdoc": {
    "methods": {}
  },
  "userdoc": {
    "methods": {}
  }
}